{
  "transactions": [
    {
      "hash": "0x8ef0fa4b6c6622cc6b87f67f992d7ea0ce0139d18392299e5f924014aab60494",
      "transactionType": "CALL",
      "contractName": null,
      "contractAddress": "0xba90e9308db0ef8b35b5a7cd7020cc4c4ab861ec",
      "function": "verifyUser(address)",
      "arguments": [
        "0xa6253aC3Cf4CABa9Fb7B46CeF108E5eF97F3704f"
      ],
      "transaction": {
        "from": "0x3706a57b29615f9af745470990e52f420ffd1fb5",
        "to": "0xba90e9308db0ef8b35b5a7cd7020cc4c4ab861ec",
        "gas": "0x4651f",
        "value": "0x0",
        "input": "0x4d813120000000000000000000000000a6253ac3cf4caba9fb7b46cef108e5ef97f3704f",
        "nonce": "0x2a",
        "chainId": "0xa869"
      },
      "additionalContracts": [],
      "isFixedGasLimit": false
    }
  ],
  "receipts": [
    {
      "status": "0x1",
      "cumulativeGasUsed": "0x513ea",
      "logs": [
        {
          "address": "0xba90e9308db0ef8b35b5a7cd7020cc4c4ab861ec",
          "topics": [
            "0xbf4bc712158e11b4179c3246e44e61aa29d2a059d41df756641e447e46f6f419",
            "0x000000000000000000000000a6253ac3cf4caba9fb7b46cef108e5ef97f3704f"
          ],
          "data": "0x0000000000000000000000000000000000000000000000000000000068aa9db60000000000000000000000000000000000000000000000000000000000000001000000000000000000000000000000000000000000000000000000006a8bd136",
          "blockHash": "0xa4988ea6922f6d7a2c487bab0ad6085673fbbe4969a95520ab9c42e99920782a",
          "blockNumber": "0x2b11d90",
          "transactionHash": "0x8ef0fa4b6c6622cc6b87f67f992d7ea0ce0139d18392299e5f924014aab60494",
          "transactionIndex": "0x2",
          "logIndex": "0x3",
          "removed": false
        }
      ],
      "logsBloom": "0x00000000000000000000000000000000000000000000000000000000000000000000000000000000000000000000000000000000000000000400000000000200000000080000000000000000000000000000000000000000000000000000000000000000000002000000000001000000000000000000000000000000000000000000000000000000080000000000000000000000000000000000000000000000000000000000000000000000000000000000000000000000000000200000000000000000000000000000000000000000000000000004000000000000000000000000000000001000000000000000000000000000000000000000000000000000",
      "type": "0x2",
      "transactionHash": "0x8ef0fa4b6c6622cc6b87f67f992d7ea0ce0139d18392299e5f924014aab60494",
      "transactionIndex": "0x2",
      "blockHash": "0xa4988ea6922f6d7a2c487bab0ad6085673fbbe4969a95520ab9c42e99920782a",
      "blockNumber": "0x2b11d90",
      "gasUsed": "0x30151",
      "effectiveGasPrice": "0x2",
      "from": "0x3706a57b29615f9af745470990e52f420ffd1fb5",
      "to": "0xba90e9308db0ef8b35b5a7cd7020cc4c4ab861ec",
      "contractAddress": null
    }
  ],
  "libraries": [],
  "pending": [],
  "returns": {},
  "timestamp": 1756011959415,
  "chain": 43113,
  "commit": "5a428e3"
}