{
  "transactions": [
    {
      "hash": "0x3c068acc9c73bc9edc6649700bc685782ca70937893cb37c38be3378c3ea7e5d",
      "transactionType": "CALL",
      "contractName": null,
      "contractAddress": "0x6b47ab54dd4e0a7891285d7bda27d6f666edcc22",
      "function": "verifyUser(address)",
      "arguments": [
        "0xa6253aC3Cf4CABa9Fb7B46CeF108E5eF97F3704f"
      ],
      "transaction": {
        "from": "0x3706a57b29615f9af745470990e52f420ffd1fb5",
        "to": "0x6b47ab54dd4e0a7891285d7bda27d6f666edcc22",
        "gas": "0x4651f",
        "value": "0x0",
        "input": "0x4d813120000000000000000000000000a6253ac3cf4caba9fb7b46cef108e5ef97f3704f",
        "nonce": "0x23",
        "chainId": "0xa869"
      },
      "additionalContracts": [],
      "isFixedGasLimit": false
    }
  ],
  "receipts": [
    {
      "status": "0x1",
      "cumulativeGasUsed": "0x4eed7",
      "logs": [
        {
          "address": "0x6b47ab54dd4e0a7891285d7bda27d6f666edcc22",
          "topics": [
            "0xbf4bc712158e11b4179c3246e44e61aa29d2a059d41df756641e447e46f6f419",
            "0x000000000000000000000000a6253ac3cf4caba9fb7b46cef108e5ef97f3704f"
          ],
          "data": "0x0000000000000000000000000000000000000000000000000000000068aa94190000000000000000000000000000000000000000000000000000000000000001000000000000000000000000000000000000000000000000000000006a8bc799",
          "blockHash": "0x7a77abff8c41de6b0831ef6028f3f7b3693d776344632bf30f4363754b03d347",
          "blockNumber": "0x2b1192f",
          "transactionHash": "0x3c068acc9c73bc9edc6649700bc685782ca70937893cb37c38be3378c3ea7e5d",
          "transactionIndex": "0x1",
          "logIndex": "0x3",
          "removed": false
        }
      ],
      "logsBloom": "0x000000000000000000000000000000000000000000080000000000000000000000000000000000000000000000000000000000000000000004000000000002000000000a0000000000000000000000000000000000000000000000000000000000000000000000000000000001000000000000000000000000000000000000000000000000000000080000000000000000000000000000000000000000000000000000000000000000000000000000000000000000000000000000000000000000000000000000000000000000000000000000000000000000000000000000000000000000001000000000000000000400000000000000000000000000000000",
      "type": "0x2",
      "transactionHash": "0x3c068acc9c73bc9edc6649700bc685782ca70937893cb37c38be3378c3ea7e5d",
      "transactionIndex": "0x1",
      "blockHash": "0x7a77abff8c41de6b0831ef6028f3f7b3693d776344632bf30f4363754b03d347",
      "blockNumber": "0x2b1192f",
      "gasUsed": "0x30151",
      "effectiveGasPrice": "0x2",
      "from": "0x3706a57b29615f9af745470990e52f420ffd1fb5",
      "to": "0x6b47ab54dd4e0a7891285d7bda27d6f666edcc22",
      "contractAddress": null
    }
  ],
  "libraries": [],
  "pending": [],
  "returns": {},
  "timestamp": 1756009499367,
  "chain": 43113,
  "commit": "5a428e3"
}